S01500004C6F636B65725F53797374656D2E73726563CB
S11300000C942A000C943F000C943F000C943F0085
S11300100C943F000C943F000C943F000C943F0060
S11300200C943F000C943F000C943F000C943F0050
S11300300C943F000C943F000C943F000C943F0040
S11300400C943F000C943F000C943F000C943F0030
S11300500C943F0011241FBECFE5D8E0DEBFCDBF16
S113006010E0A0E6B0E0E0EFF9E002C005900D92E8
S1130070A43EB107D9F70E94FD010C94F6040C9438
S11300800000E199FECF90E09FBB8EBB6DBBE29A6E
S1130090E19A0895E199FECF90E09FBB8EBBE09A70
S11300A08DB390E0089580EF84BB8FEF85BB0895F6
S11300B0AC98AD9AAE9AAF9A989B44C0999B44C0B1
S11300C09A9B44C09B9B44C08FE19EE40197F1F747
S11300D000C00000AC9AAD98AE9AAF9A989B3AC013
S11300E0999B3AC09A9B3AC09B9B3AC08FE19EE48D
S11300F00197F1F700C00000AC9AAD9AAE98AF9AA0
S1130100989B30C0999B30C09A9B30C09B9B30C059
S11301108FE19EE40197F1F700C00000AC9AAD9A1C
S1130120AE9AAF98989B26C0999B26C09A9B26C0EE
S11301309B9B26C08FE19EE40197F1F700C000006D
S11301408FEF089587E3089588E3089589E3089578
S11301508FE2089584E3089585E3089586E308957E
S11301608AE2089581E3089582E3089583E308957C
S11301708DE2089583E6089580E308958DE308955C
S11301808BE20895DA98882314F4DF9A01C0DF988B
S113019086FF02C0DE9A01C0DE9885FF02C0DD9AA8
S11301A001C0DD9884FF02C0DC9A01C0DC98DB9AB0
S11301B0EFE9FFE03197F1F700C00000DB98EFE9C9
S11301C0FFE03197F1F700C0000083FF02C0DF9A1F
S11301D001C0DF9882FF02C0DE9A01C0DE9881FF71
S11301E002C0DD9A01C0DD9880FF02C0DC9A01C024
S11301F0DC98DB9A8FE99FE00197F1F700C00000DB
S1130200DB98EFE9FFE03197F1F700C000000895B3
S11302108AB38D6F8ABB83E00E94C2008FE79EE39E
S11302200197F1F700C0000083E00E94C2008FE74D
S11302309EE30197F1F700C0000083E00E94C20032
S11302408FE79EE30197F1F700C0000082E00E946F
S1130250C20088E20E94C20081E00E94C20086E0DF
S11302600E94C2008CE00E94C2009FEF29EF80E050
S1130270915020408040E1F700C000000895DA9AD0
S1130280882314F4DF9A01C0DF9886FF02C0DE9A47
S113029001C0DE9885FF02C0DD9A01C0DD9884FFAD
S11302A002C0DC9A01C0DC98DB9AEFE9FFE03197E9
S11302B0F1F700C00000DB98EFE9FFE03197F1F7B8
S11302C000C0000083FF02C0DF9A01C0DF9882FFF4
S11302D002C0DE9A01C0DE9881FF02C0DD9A01C02F
S11302E0DD9880FF02C0DC9A01C0DC98DB9A8FE9BC
S11302F09FE00197F1F700C00000DB98EFE9FFE011
S11303003197F1F700C0000008950F931F93CF9326
S1130310FC018081882359F08F01C0E00E943F01D5
S1130320CF5FF801EC0FF11D80818111F7CFCF91E0
S11303301F910F910895CF930E9458008F3FE1F3CE
S11303400E945800C82F0E9458008F3FE1F78C2F5D
S1130350CF910895FC0120E030E090E016C0943085
S1130360F0F319C0B901660F771F220F331F220F54
S1130370331F220F331F260F371F20533109240F39
S1130380311D9F5F3196943031F0408180ED840FB0
S11303908A3028F7E7CFC9010895EF92FF920F93AF
S11303A01F93CF93DF9300D000D0CDB7DEB7CE013B
S11303B001967C0100E00E949B01182F80ED810FC3
S11303C08A3050F48AE20E943F01F70111937F01C1
S11303D00F5F043019F0EFCF043068F3CE010196BB
S11303E00E94AA010F900F900F900F90DF91CF9170
S11303F01F910F91FF90EF900895CF93DF93CDB7A6
S1130400DEB7CE59D1090FB6F894DEBF0FBECDBF0B
S1130410CE010C96CB57DF4F99838883C558D040C3
S11304204A96C957DF4F99838883C758D0402E0115
S11304309BE4490E511C1E012AE6220E311CCE01FA
S11304408C589F4FC757DF4F99838883C958D04032
S1130450CB57DF4F9881C558D040C557DF4F98839D
S1130460CB58D040CA57DF4F2881C658D040C45714
S1130470DF4F2883CC58D040C957DF4FA880C758D6
S1130480D040C857DF4FB880C858D040C757DF4F57
S11304908881C958D040C357DF4F8883CD58D04096
S11304A0C657DF4F9881CA58D040C257DF4F988350
S11304B0CE58D040CF56DF4F4882C159D040CE5697
S11304C0DF4F5882C259D040CD56DF4F2882C359DE
S11304D0D040CC56DF4F3882C459D0408B2DBA2C33
S11304E0A82E0E9408010E945300D99A60E070E08F
S11304F08AE00E94410060E070E08BE00E944100CD
S11305008BE0E0E6F0E0DE01119601900D928A9511
S1130510E1F78DE0EBE6F0E0DE011C9601900D9230
S11305208A95E1F78DE0E8E7F0E0DE015996019065
S11305300D928A95E1F78FE0E5E8F0E0DE0196960A
S113054001900D928A95E1F785E0E4E9F0E0DE019F
S1130550D59601900D928A95E1F781E1E9E9F0E001
S1130560DE01DA9601900D928A95E1F78FE0EAEACE
S1130570F0E0D20101900D928A95E1F780E1E9EB78
S1130580F0E0DE01A65ABF4F01900D928A95E1F783
S11305908AE0E9ECF0E0D10101900D928A95E1F74F
S11305A081E1E3EDF0E0DE01AC58BF4F01900D9224
S11305B08A95E1F781E00E944A008F3F910509F096
S11305C047C060E070E08EE10E94410082E80E9432
S11305D0C200CE0101960E9485012FEF83ED90E3C6
S11305E0215080409040E1F700C0000081E00E946B
S11305F0C20082E80E94C200C557DF4F8881CB58F1
S1130600D040C457DF4F9881CC58D0400E94850118
S113061086EC0E94C200CE01C5960E94850186EC3C
S11306200E94C2000E94CD01082F192F81E00E9470
S1130630C200602F712F84E10E944100612F70E09D
S113064085E10E94410061E070E081E00E94410088
S11306508EE10E944A00039708F06AC081E80E9474
S1130660C2008B2D9A2D0E94850186EC0E94C20047
S1130670CE01C5960E94850186EC0E94C2000E94AC
S1130680CD016C0181E00E94C20084E10E944A0015
S11306908C0185E10E944A00982E812C0829192991
S11306A0C016D10671F08AE00E944A008C018BE0EA
S11306B00E944A00782E612C06291729C016D106FB
S11306C099F4CE01CA960E94850160E070E08EE143
S11306D00E9441002FEF83ED90E321508040904031
S11306E0E1F700C000007EC081E80E94C200C201A0
S11306F00E94850184EC0E94C200C1010E94850110
S1130700D89A2FEF83ED90E3215080409040E1F799
S113071000C00000D89881E00E94C2008EE10E94CF
S11307204A00BC016F5F7F4F8EE10E94410042CFBF
S113073080E80E94C200CE01865A9F4F0E94850124
S1130740D89A2FEF83ED90E3215080409040E1F759
S113075000C00000D89881E00E94C20081E80E9495
S1130760C2008B2D9A2D0E94850186EC0E94C20046
S1130770CE01C5960E94850186EC0E94C2000E94AB
S1130780CD016C0181E00E94C2008AE00E944A000F
S11307908C018BE00E944A00F82EE12C0E291F29BF
S11307A0C016D10659F460E070E08EE10E94410069
S11307B06FEF70E081E00E944100FCCECE01865ACA
S11307C09F4F0E948501D89A2FEF83ED90E321502B
S11307D080409040E1F700C00000D89881E00E947A
S11307E0C200BCCF81E00E94C200C357DF4F8881A2
S11307F0CD58D040C257DF4F9881CE58D0400E9488
S1130800850102C0C99B6DCE0E9458008F3FD1F371
S11308100E945800182F0E9458008F3FB1F02FEF0C
S113082083ED90E3215080409040E1F700C0000048
S11308300E9458008F3F49F02FEF83ED90E3215041
S113084080409040E1F700C00000103359F6CB56C9
S1130850DF4F99828882C559D040C956DF4F7982CB
S11308606882C759D040C756DF4FF982E882C95918
S1130870D040C556DF4F59824882CB59D040C35629
S1130880DF4F39822882CD59D0408B2C9A2CCF56F9
S1130890DF4F7880C159D040CE56DF4F5880C259BF
S11308A0D040CD56DF4F3880C359D040CC56DF4FAF
S11308B0F880C459D04081E00E94C20082E80E94BE
S11308C0C200CE0149960E94850186EC0E94C200B6
S11308D0CE01C5960E9485010E9458008F3FE1F722
S11308E086EC0E94C2000E94CD016C0184E10E944A
S11308F04A008C0185E10E944A00B82EA12C0A29E5
S11309001B29C016D10609F054C0C956DF4F6880B0
S11309107980C759D040C756DF4FE880F980C9595C
S1130920D040C157DF4FB982A882CF58D040C556B6
S1130930DF4F48805980CB59D040C356DF4F2880C1
S11309403980CD59D040B82CA92CCB56DF4F8880A4
S11309509980C559D04081E00E94C20082E80E947B
S1130960C200C557DF4F8881CB58D040C457DF4FF2
S11309709881CC58D0400E94850186EC0E94C20028
S1130980CE01C5960E94850186EC0E94C2000E9499
S1130990CD01082F192F81E00E94C200602F712F12
S11309A084E10E944100612F70E085E10E944100D2
S11309B019CF81E80E94C200872D952D0E948501E0
S11309C084EC0E94C200832D9F2D0E948501D89A39
S11309D02FEF83ED90E3215080409040E1F700C079
S11309E00000D89881E00E94C20065CFF894FFCF40
S11309F057454C434F4D45203A29004E65772050CA
S1130A00617373776F7264004F6C64205061737309
S1130A10776F726400456E746572205061737377EA
S1130A206F7264002D2D2D2D00436F7272656374F7
S1130A302050617373776F72640057726F6E672012
S1130A4050617373776F726400546F6F204D7563D8
S1130A506820547269616C73005472792041676133
S1130A60696E004C6F636B6572204973204F70652B
S1070A706E65640047
S9030000FC
